:03000000020A42AF
:0C0A4200787FE4F6D8FD758120020A8957
:0C0BA300010F0001100001110001120000
:10093300D200D201D202D203D204D205D206D20708
:10094300750800750964D2AFA2B29204A204300004
:1009530001B3501E120B94A20430B201B340132012
:10096300000C74182509F50974FC3508F508A20470
:100973009200A2B39205A205300101B3501E120BDF
:1009830094A20530B301B3401320010C74E8250988
:10099300F50974033508F508A2059201A2B0920681
:1009A300A206300201B3501E120B94A20630B0010E
:1009B300B3401320020C749C2509F50974FF350814
:1009C300F508A2069202A2B19207A207300301B36F
:1009D300501D120B94A20730B101B3401220030B38
:1009E30074642509F509E43508F508A20792037D27
:1009F30032AF09AE08120ACE900000AF82AE83E494
:100A0300FCFD7B407A9CF9F8D312091D4003A380B7
:100A1300EA120BB0D3E5099432E5089400400AE5E5
:100A2300099496E5089400400BC2A3C2A2C2A1C2D6
:0F0A3300A002094BD2A3D2A2D2A1D2A002094B9A
:020ACE008D0A8F
:100AD000AB07AA06E4F9F8FF7E107D0EFC120B3B73
:100AE0008F0E8E0D8D0C8C0BAF0AE4FCFDFEAB0E51
:100AF000AA0DA90CA80B120800E47B64FAF9F812FD
:100B0000088BAD07AC06C3E50E9DFFE50D9CAB075A
:100B1000FAC3740C9DFDE49CFCC3740C9BFBE49A2B
:100B20008C0F8D10F5118B125389F0438901850FBD
:0A0B30008C85108AD2A9D28CD2A1C4
:010B3A002298
:070BB000C28CC2A9D2A122F0
:03000B00020B7F66
:100B7F0030A10985118C85128AC2A132850F8C850F
:050B8F00108AD2A13222
:0E0B94007FE87E03EF1FAC0670011E4C70F66A
:010BA2002230
:100A4E00020933E493A3F8E493A34003F68001F282
:100A5E0008DFF48029E493A3F85407240CC8C333A9
:100A6E00C4540F4420C8834004F456800146F6DF78
:100A7E00E4800B0102040810204080900BA3E47E5A
:100A8E00019360BCA3FF543F30E509541FFEE4936D
:100A9E00A360010ECF54C025E060A840B8E493A334
:100AAE00FAE493A3F8E493A3C8C582C8CAC583CA5F
:100ABE00F0A3C8C582C8CAC583CADFE9DEE780BE17
:010BAF000045
:10080000E88FF0A4CC8BF0A42CFCE98EF0A42CFC97
:100810008AF0EDA42CFCEA8EF0A4CDA8F08BF0A415
:100820002DCC3825F0FDE98FF0A42CCD35F0FCEB74
:100830008EF0A4FEA9F0EB8FF0A4CFC5F02ECD3939
:0F084000FEE43CFCEAA42DCE35F0FDE43CFC22A6
:10084F0075F008758200EF2FFFEE33FECD33CDCC60
:10085F0033CCC58233C5829BED9AEC99E5829840E3
:10086F000CF582EE9BFEED9AFDEC99FC0FD5F0D6C0
:10087F00E4CEFBE4CDFAE4CCF9A88222B800C1B9EA
:10088F000059BA002DEC8BF084CFCECDFCE5F0CB28
:10089F00F97818EF2FFFEE33FEED33FDEC33FCEB61
:1008AF0033FB10D703994004EB99FB0FD8E5E4F91C
:1008BF00FA227818EF2FFFEE33FEED33FDEC33FC09
:1008CF00C933C910D7059BE99A4007EC9BFCE99AFD
:1008DF00F90FD8E0E4C9FAE4CCFB2275F010EF2F42
:1008EF00FFEE33FEED33FDCC33CCC833C810D70742
:1008FF009BEC9AE899400AED9BFDEC9AFCE899F87D
:0E090F000FD5F0DAE4CDFBE4CCFAE4C8F9220F
:100B3B00C2D5E830E70FB2D5E4C39BFBE49AFAE4E5
:100B4B0099F9E498F8EC30E717B2D5120B7112084B
:100B5B008BE4C39BFBE49AFAE499F9E498F88003DD
:100B6B0012088B30D50DE4C39FFFE49EFEE49DFD80
:040B7B00E49CFC22D8
:10091D00EB9FF5F0EA9E42F0E99D42F0EC6480C851
:06092D0064809845F022F1
:00000001FF
